:020000040800F2
:1000000040070020D9010008073900082F320008F6
:1000100005390008410F0008E54000080000000015
:100020000000000000000000000000002B39000864
:10003000CD0F00080000000029390008113A00081F
:10004000F3010008F3010008F3010008F3010008C0
:10005000F3010008F3010008F3010008F3010008B0
:10006000F3010008F3010008F3010008F3010008A0
:10007000F3010008F3010008F3010008F301000890
:10008000F3010008F3010008A9080008F3010008C3
:10009000F3010008F3010008F3010008F301000870
:1000A000F53A0008193B00080D3B0008013B000829
:1000B000F3010008F3010008F3010008F301000850
:1000C000F3010008F3010008F3010008F301000840
:1000D000F3010008F3010008F3010008F301000830
:1000E000F3010008F3010008F3010008F301000820
:1000F000F3010008F3010008F3010008F301000810
:10010000F3010008F3010008F3010008F3010008FF
:10011000F3010008F3010008F3010008F3010008EF
:10012000450F0008F3010008F3010008F30100087F
:10013000F30100080000000000000000F3010008C7
:10014000F3010008F3010008F3010008F3010008BF
:10015000F3010008F3010008F3010008F3010008AF
:10016000F3010008F3010008F3010008F30100089F
:10017000F3010008F3010008F3010008000000008B
:1001800000000000F3010008000000000000000073
:10019000F30100080000000000000000F301000867
:1001A000000000000000000000000000F301000853
:1001B000F3010008F3010008F3010008F30100084F
:1001C000F3010008DFF80CD000F05CFB00480047AA
:1001D000C14A0008400700200648804706480047FB
:1001E000FEE7FEE7FEE7FEE7FEE7FEE7FEE7FEE7E7
:1001F000FEE7FEE7A13A0008C50100082DE9F05F1F
:100200000546002092469B46884606468146402485
:100210001BE0284641464746224600F0DDF953469A
:100220005A46C01A914110D311461846224600F092
:10023000C4F92D1A67EB01084F4622460120002120
:1002400000F0BBF917EB00094E41201EA4F1010498
:10025000DFDC484631462A464346BDE8F09F2DE99B
:10026000F0410024061B254671F1000605DA012441
:100270000027D0EB070067EB0101161E73F10006A3
:1002800005DA0027D2EB0702012567EB0303FFF72E
:10029000B5FF86460E4617469C46AC4204D0002564
:1002A000D0EB050E65EB010624B10020D2EB000770
:1002B00060EB030C704631463A466346BDE8F08178
:1002C000D2B201E000F8012B491EFBD27047002298
:1002D000F6E710B513460A4604461946FFF7F0FF45
:1002E000204610BD2DE9FE4F804681EA0300C00F75
:1002F0000C46009021F0004123F00045B8EB0200CD
:10030000A94105D24046214690461C460B4602466E
:1003100023F00040104347D0270DC7F30A00C3F372
:100320000A510290401A019040286BDAC3F313007F
:1003300040F4801B0098924620B10023D2EB030AC0
:1003400063EB0B0B01985946C0F14002504600F098
:1003500034F906460D4650465946019A00F04CF9CC
:1003600010EB08006141002487EA115284EAE77328
:100370001A4340D0009A62B3019A012A4FEA075209
:1003800015DC001B61EB02014FF0004202EA07524C
:10039000CDE90042001C41F5801132462B4600F0A9
:1003A00083F903B0BDE8F08F40462146F9E7001B12
:1003B00061EB0201001C41F5801300185B4120181D
:1003C000A2F5001747EB030140EAD570B6196D415D
:1003D00011E06D084FEA360645EAC0754FEA07524C
:1003E000001B61EB0201001C41F5801149084FEA36
:1003F00030000019514132462B4603B0BDE8F04FA2
:1004000000F043B90098012240000023D0EB020223
:1004100063EBE073009821464FEAE074B8EB00000C
:1004200061EB0401E9E783F000435BE781F0004101
:1004300058E72DE9FE4F81EA030404F0004421F05F
:10044000004100944FF0000B23F0004350EA0104F8
:100450005ED052EA03045BD0C3F30A54C1F30A55D9
:100460002C44A4F2F3340194A0FB0254C1F3130111
:1004700041F48011C3F3130343F4801301FB0244DE
:1004800000FB034E840A970A44EA815447EA8357E3
:10049000A4FB076802958D0A05FB07854FEA932C9C
:1004A00004FB0C542705029D4FEA065847EA16370D
:1004B000B5EB08056EEB070C870E920E47EA811725
:1004C00042EA8312A7FB0201B6EB0B0164EB0004C6
:1004D0002B0D43EA0C335E1844EB1C50DA465146B0
:1004E000E7FB0201C5F313044FEA0B3343EA14534D
:1004F0004FEA0432019C43EA0603A4F10C0402947F
:10050000009CCDE900B400F0CFF803B0BDE8F08F57
:1005100000200146F9E70EB540F233410291002177
:10052000CDE900110A460B4600F0BEF803B000BD4D
:1005300000F0004230F000400AD0C10D01F56071BA
:10054000C0F3160042EA0151C20840071143704748
:1005500000200146704701F0004330B421F0004113
:1005600050EA010206D00A0DA2F56072C1F3130130
:10057000002A02DC30BC00207047440F44EAC1046A
:10058000C100E01830BC00EBC25000F047B830B5F5
:100590000B46014600202022012409E021FA02F541
:1005A0009D4205D303FA02F5491B04FA02F52844DB
:1005B000151EA2F10102F1DC30BD202A04DB203A35
:1005C00000FA02F1002070479140C2F1200320FAA6
:1005D00003F3194390407047202A04DB203A21FAA4
:1005E00002F00021704721FA02F3D040C2F120024C
:1005F0009140084319467047202A06DBCB17203A62
:1006000041FA02F043EAE07306E041FA02F3D04017
:10061000C2F1200291400843194670470029A8BF43
:100620007047401C490008BF20F00100704710B41B
:10063000B0FA80FC00FA0CF050EA010404BF10BCD0
:10064000704749B1CCF1200421FA04F411FA0CF1FD
:1006500018BF012121430843A3EB0C01CB1D4FEA36
:1006600000614FEA102042BF002010BC704700EB31
:10067000C35010440029A4BF10BC7047401C49005F
:1006800008BF20F0010010BC704710B5141E73F1B4
:10069000000408DA401C41F1000192185B411A4342
:1006A00001D120F0010010BD2DE9F04D92469B468E
:1006B00011B1B1FA81F202E0B0FA80F22032904634
:1006C000FFF77BFF04460F4640EA0A0041EA0B01B0
:1006D00053465A46084313D0114653EA010019D035
:1006E000C8F140025046FFF777FF05460E465046D8
:1006F00059464246FFF761FF084305D0012004E058
:1007000020463946BDE8F08D0020054346EAE076F4
:100710002C4337430A986305E40AA0EB0800002243
:10072000FD0A44EA47540A3002D500200146E9E7B1
:10073000010510196941DDE9084500196941BDE865
:10074000F04DA2E72DE9F04D81EA030404F0004BDF
:1007500021F0004514464FF0000A23F0004150EA12
:10076000050220D054EA01021DD0C5F30A57024603
:10077000C5F31303C1F31300C1F30A5640F4801507
:1007800043F48013A7EB0608101BD64608F2FD3889
:1007900073EB050002D308F1010801E092185B41F8
:1007A000B8F1000F03DA00200146BDE8F08D00200B
:1007B0004FF48011064684460EE0171B73EB0507C5
:1007C00005D3121B63EB050306434CEA010C4908F1
:1007D0004FEA300092185B4150EA0107EDD152EA2E
:1007E000030012D082EA040083EA0501084305D021
:1007F000101BAB4106D20122002306E000224FF07D
:10080000004302E06FF0010253101AEB06004CEBBC
:10081000085110EB0A0041EB0B01BDE8F04DFFF76A
:1008200034BFC1F30A52C1F3130140F2FF3341F464
:1008300080119A4202DA00200146704740F23343A9
:100840009A42A2F2334202DC5242FFF7C5BEFFF7E2
:10085000B4BE000030B5041E71F1000404DB4FF09B
:100860000044404264EB0101141E73F1000405DBF7
:100870001C464FF00043524263EB0403994208BF09
:10088000904230BD064C074D06E0E06840F00103A1
:1008900094E8070098471034AC42F6D3FFF796FC73
:1008A0007C4F00089C4F0008014800F070BC00001D
:1008B0002C000020454910B54A6822F440324A60B5
:1008C0004A6843681A434A6001684A6822F48072A1
:1008D0004A6001684A68036942EA03224A60016883
:1008E0004A6822F040724A6001684A6883681A4385
:1008F0004A6001688A6822F400628A6001688A6836
:10090000C3681A438A60816A6FF07062D1420168DD
:100910008A6822F070628A6001688A680CD0836AF3
:100920001A438A6001688A6822F040528A6001682E
:100930008A68C36A1A4301E022F040528A60016863
:100940008A6822F002028A6001688A68836942EA42
:1009500043028A60016A002901684A680FD042F4A4
:1009600000624A6001684A6822F460424A60016895
:100970004A68174C436A04EB43331A4301E022F4FC
:1009800000624A600168CA6A22F47002CA620168A1
:10099000CA6A838B0F4C04EB03531A43CA62016883
:1009A0008A6822F400728A6001688A68036B42EAEE
:1009B00043228A6001688A6822F480628A60016842
:1009C0008A68406942EA8020886010BD00230140A7
:1009D00000E0FFFF0000F0FF2DE9F05F04468B46CA
:1009E0005349D0175118A1FB0123B4F9106040F10D
:1009F000FF30A2FB069C00FB013301FB0033F7171D
:100A000003FB06C602FB0768B4F90E504FF0000A5C
:100A1000A5FB017CEE1706FB01C605FB00656E0415
:100A200046EAD7367F0417EB090546EB0806B4F90A
:100A30000C701AEB050546EBC709B4F90A60A2FB76
:100A400006C803FB06834FEAE67702FB0732B4F9D8
:100A500008604FEA1C23A6FB01C84FEAE67707FBB4
:100A6000018106FB00104FEA003143EA02634FEABE
:100A70000C3041EA1C51181841EB2222001C42F5AF
:100A80000043E288A0FB027603FB026200FB0A201F
:100A90004210C31752EA030047D0CBF58010C117AC
:100AA000C907C607751B41EA500140F63546A5FB4C
:100AB000060C61EB090101FB06C1002705FB0711CC
:100AC000FFF7CDFBB4F91630420B42EAC142A3FB5B
:100AD000027CDD1705FB02C54E1303FB0653A7FB83
:100AE000025C03FB02C207FB06226B0E43EAC21341
:100AF0005616B4F91420A2FB007CD51705FB00C5DF
:100B000002FB0155FA0CC01842EA453271418018C7
:100B100041EBE5414FEA102040EA0160B4F91210C0
:100B20004FEA01114018BDE8F09F0020FBE70000EC
:100B3000000CFEFFF8B50546808C0C46762801D0E7
:100B4000772857D1012305F13202D021284600F041
:100B500073F9E8BB95F83200582801D0602849D1D4
:100B6000B622E021284600F0D4F988BB01236A466A
:100B7000F321284600F060F90028F7D19DF8000025
:100B8000C007F3D1284600F0FFF8002833D095F8CD
:100B90003200602804D1284600F063F900282AD0EA
:100BA00060796178400140EA8100C2B2F5212846AF
:100BB00000F0AFF960B92078012801D10020207041
:100BC000E078A178400140EA81002178084300E004
:100BD00010E0C6B295F83200602805D12279F221E2
:100BE000284600F096F928B93246F421284600F04C
:100BF00090F908B10020F8BD0120F8BD0321017073
:100C0000002242708170C1700171417170472DE9FD
:100C1000FC41044690F8320090460F461E4660287C
:100C200004D00EB100201860002602E00EB10823A7
:100C300000E006236A46F721204600F0FDF810B1D7
:100C40000020BDE8FC819DF800009DF80420010310
:100C50009DF80100238841EA00119DF80200B4F9D3
:100C6000025041EA10119DF80300000340EA02100F
:100C70009DF8052040EA1210C210A2EB4302C3EB1C
:100C800020104043B4F904306A430013D212584391
:100C900002EBA03505EB85008030001238602A4653
:100CA0002046FFF799FEC8F80000AEB3BDF8060075
:100CB000E18B40BA8003A0EB0150A5F59635B4F95D
:100CC0002010227F01FB150094F922106A4369432A
:100CD0004FF40043891203EBE22251439A0102EBE5
:100CE000A121B4F91A2000F58040514301F50051CB
:100CF000C01389134843C1134943227EC91151438C
:100D0000B0EB211001D5002004E04FF0C85188421B
:100D100000DD084600133060012092E7FEB51C009C
:100D200015460E4601D002AB00E0002301AA694639
:100D3000FFF76DFF00281FD09DED000ADFED0F0AC1
:100D4000B8EEC00A80EE201ADFED0D0A86ED001A1B
:100D50009DED010AB8EE400A20EE200A85ED000A5A
:100D60004CB19DED020ADFED070AB8EE400A20EE15
:100D7000200A84ED000A0120FEBD00000000C842E8
:100D80000000803B0000803A10B5044602468821EE
:100D900000F0A3F800284DD0A21C8A21204600F0C4
:100DA0009CF8E8B3221D8C21204600F096F8B8B3D9
:100DB000A21D8E21204600F090F888B304F10802AD
:100DC0009021204600F089F850B304F10A029221E4
:100DD000204600F082F818B304F10C02942120465A
:100DE00000F07BF8E0B104F10E029621204600F0FD
:100DF00074F8A8B104F110029821204600F06DF8B3
:100E000070B104F112029A21204600F066F838B160
:100E100004F114029C21204600F05FF800B100E0CC
:100E200008E004F116029E21204600F056F808B1B1
:100E3000012010BD002010BD3EB514460A46818C2D
:100E40004FF6FF75CDE9004305EA410141F28835CF
:100E50000295806A012301F01BF9002800D00120CF
:100E60003EBD1CB50446012300F11802A121FFF785
:100E7000E3FF10BB04F11A02E121204600F02DF837
:100E8000D8B1012304F11C02E3212046FFF7D4FF6F
:100E900098B96A46E421204600F01FF868B101AA1B
:100EA000E521204600F019F838B1012304F12202AF
:100EB000E7212046FFF7C0FF08B100201CBDBDF8A8
:100EC0000000C1B2C0F3032040EA0110E083BDF886
:100ED00004000009208401201CBD7FB51446828CCB
:100EE0004FF6FF7303EA420541F28836022303AA54
:100EF0008DE84C000A46806A0123294601F0C8F8B3
:100F000010B1002004B070BDBDF80C00208001209D
:100F1000F8E737B5828C4FF6FF7303EA420484B0DA
:100F200042F21075012306AA8DE82C000A46806A59
:100F3000214601F0ABF9002800D0012007B030BDF8
:100F4000FEE70000014800F061BC0000E002002064
:100F500001681823CAB2103AB2FBF3F2054B6FF3E3
:100F60000901032A9B5CC36500D9091D81650846F8
:100F7000704700005C4F000810B5014600208B69E7
:100F80008A6A4FF0C07453B1B3F5005F15D072B1E7
:100F9000012A0CD0022A0AD0032A09D104E01AB18E
:100FA000012A06D0022A03D1C96AC90100D501204D
:100FB00010BDC96AA142FAD010BD002AF7D0012A9B
:100FC000F2D0022AF3D0032AF3D010BD7047704745
:100FD00030B585B00546072003900120CDE901100A
:100FE00001A9284600F024F8284600F03FFA0E49EF
:100FF000284600F0E9F9284600F0C6F804462846DD
:1010000000F092FA002000900A234FF4E17240F6BB
:10101000FF71204602F06EFCC0F10A000022092197
:1010200003F0E4FC05B030BDA0860100704700006D
:1010300078B50024009490F83C20012A19D00122B0
:1010400080F83C200A6807230568092A13D9EE684E
:101050000A3A02EB420293409E43EE600A788B68A4
:101060000A3A02EB420293400268D5682B43D360F0
:1010700010E0022078BD2E6902EB420293409E43AD
:101080002E610A788B6802EB420293400268156970
:101090002B4313614A681F23072A13D205686E6B1E
:1010A000521E02EB820293409E436E630B790A88C4
:1010B0005B1E92B203EB83039A4003685D6B2A4385
:1010C0005A6327E005680D2A12D22E6BD21F02EB5D
:1010D000820293409E432E630B790A88DB1F92B2F3
:1010E00003EB83039A4003681D6B2A431A6311E0E4
:1010F000EE6A0D3A02EB820293409E43EE620B7958
:101100000A880D3B92B203EB83039A400368DD6AC1
:101110002A43DA62174B0568154A9D4206D10D68CD
:10112000122D03D1556845F48005556005689D4230
:1011300019D1114D0B68AB4201D0112B13D153685B
:1011400043F4000353600968A9420CD10B490C4ACF
:101150000968B1FBF2F101EB8101490000E0491E91
:1011600000910029FBD180F83C40002078BD0000B0
:101170000023014000200140120000102800002040
:1011800040420F00704770470068C06C704770B5F0
:101190000446006801684268C1F34001C2F340128E
:1011A00051B34AB3216CC90603D4216C41F40071D8
:1011B0002164816811F0405F17D1A169A9B9C16AA2
:1011C00011F4700F02D0816849050ED4416821F0F6
:1011D00020014160206C20F480702064206CC004E9
:1011E00003D4206C40F0010020642046FFF7CAFFC2
:1011F00021686FF012000860206801684268C1F33E
:101200008001C2F3C01289B382B3216CC90603D432
:10121000216C41F400512164816811F4401F1ED1FA
:10122000816B11F4401F02D08168490517D44168D1
:10123000490514D4816811F0405F10D1A16971B9DA
:10124000416821F080014160206C20F480502064CE
:10125000206CC00503D4206C40F0010020642046BF
:10126000FFF7E4FE21686FF00C0008602068016859
:10127000426811F0010FC2F380120ED06AB100680B
:10128000C0070AD0206C40F480302064204600F073
:1012900046F821686FF00100086020680168426824
:1012A000C1F34011C2F3806200290DD0002A0BD097
:1012B000616C41F0020161646FF020050560204619
:1012C000FFF761FF2068056070BD70B504004FF046
:1012D000000503D0206C002610B107E0012070BD8E
:1012E000666484F83C60204600F01AF8206CC00662
:1012F00010D4206C20F4885040F002002064204676
:10130000FFF7D8FA6664206C20F0020040F001007C
:10131000206400E0012584F83C60284670BD7047D9
:1013200070B586B0064614216846FEF7D0FF214905
:10133000306888423BD120480025016841F4807123
:101340000160006800F4807005901B481438016843
:1013500041F0010101600068694600F0010005905C
:1013600003200090CDE90105144800F09BFB154CCB
:101370001348C4E900050015A560C4E903508000C6
:1013800060618000A0618011C4E9070520466562A4
:1013900000F00CFB08B1FFF71AFEB46300221146FF
:1013A0001220A66301F0ACF8122001F09DF806B0FF
:1013B00070BD00000020014044380240000002409F
:1013C00010640240E00200202DE9F041044600686C
:1013D0000D4681684FF0000749050BD58068C005B0
:1013E00008D5206C40F02000206484F83C70012077
:1013F000BDE8F08100F032FC06460FE0681C0DD01D
:1014000025B100F02BFC801BA84207D9206C40F0CE
:101410000400206484F83C700320E9E72068006839
:101420008007EBD521686FF012000860206C40F453
:10143000007020642068816811F0405F13D1A169B9
:1014400089B9C16A11F4700F02D0806840050AD4CE
:10145000206C20F480702064206CC00403D4206CC5
:1014600040F0010020640020C2E7000018B5002110
:10147000009190F83C20012A07D0012280F83C20FE
:1014800002689368DB0702D011E0022018BD936860
:1014900043F001039360204A204B1268B2FBF3F241
:1014A00002EB420200E0521E0092002AFBD10268C9
:1014B0009368DB072DD0036C40F20164A34343F42F
:1014C0008073036453685B0505D5036C23F40053F4
:1014D00043F480530364036CDB0404D5436C23F0B2
:1014E0000603436400E0416480F83C100C496FF04F
:1014F0002203136049680068C90602D0094988427E
:1015000007D1816811F0405F03D1816841F08041CB
:101510008160002018BD00002800002040420F001C
:10152000002301400020014090F83C1001290CD01C
:10153000012180F83C1001688A6822F001028A606B
:1015400001688968C90702D007E002207047016C72
:1015500021F4885141F001010164002180F83C1020
:1015600008467047F0B590F82040012C07D090F85D
:101570002040022C03D0416A41F4802153E00468EA
:10158000A5686D0105D4A5682D0102D4A568ED00FC
:1015900046D5A4680125C4F30164A5401D608D688B
:1015A0004FF4C0739DB1CE6835434E6845EAC60519
:1015B000066803EB0417F5514FF4C275076805EB95
:1015C00004150E697E51097D012905D009E00E88B8
:1015D000CD6845EA4655EBE701684E5946F48076FA
:1015E0004E511179D2F805504FF4C67641EA0521E3
:1015F000056806EB0416A9511178D2F801204FF4C2
:10160000C47541EA0221026805EB041551510068D6
:1016100003EB0411425842F0010242500020F0BD99
:10162000416A41F4001141620120F0BD70B504002F
:1016300003D094F8200010B104E0012070BD2046D2
:1016400000F082F82068016821F00201016000F0DA
:1016500005FB0546052604E000F000FB401B0A28B8
:1016600011D8206840688007F6D42068016841F0EE
:101670000101016000F0F2FA05460BE000F0EEFA1D
:10168000401B0A2806D9606A40F40030606284F882
:101690002060D2E720684068C007EFD0207E012894
:1016A000206801683DD021F080010160607E012842
:1016B0002068016838D021F040010160A07E012837
:1016C0002068016833D021F020010160E07E01280C
:1016D000206801682ED041F010010160207F0128B0
:1016E0002068016829D021F008010160607F01288D
:1016F0002068016824D021F004010160D4E90201CE
:101700000843D4E90412114308436168491E0843A1
:101710002168C86100206062012084F82000002058
:1017200070BD41F08001C0E741F04001C5E741F0E4
:101730002001CAE721F01001CFE741F00801D4E70A
:1017400041F00401D9E7000010B586B00446142129
:101750006846FEF7BCFD14492068884221D1134831
:101760000021026842F000720260006800F0007020
:1017700005900E481038026842F0010202600068CD
:1017800000F0010005904FF4C05000900220CDE918
:10179000010103200390092004906946044800F0E9
:1017A00081F906B010BD00000064004040380240DE
:1017B0000000024070B5044690F82000012804D0D3
:1017C000606A40F40020606218E0022084F8200083
:1017D0002068016821F00101016000F03FFA054630
:1017E0000EE000BF00F03AFA401B0A2808D9606AF0
:1017F00040F400306062052084F82000012070BDB4
:1018000020684068C007EDD1606270BD2DE9F843E3
:1018100004464FF00009CDF8009063484FF416518C
:10182000A56D0068B0FBF1F72E6894F85C100820F5
:1018300000FA01F131420FD021680A6852070BD536
:101840000A6822F004020A6094F85C108840A860DC
:10185000606D40F00100606594F85C104FF0010885
:1018600008FA01F0304208D021684969090604D518
:10187000A860606D40F00200606594F85C10042080
:101880008840304208D021680968890704D5A860DB
:10189000606D40F00400606594F85C101020884092
:1018A000304218D021680968090714D5A86020685B
:1018B0000168490304D50068000308D5A16C07E05E
:1018C0000168C90503D4016821F008010160216C99
:1018D00009B12046884794F85C10202088403042A7
:1018E00031D021680968C9062DD5A86094F8350063
:1018F00005282068016806D0490347D50068000321
:101900001DD4616C1CE021F0160101602068416962
:1019100021F080014161206C08B9A06C20B12068E1
:10192000016821F00801016094F85C103F208840B4
:10193000A86084F8349084F83580216D1FE0E16B55
:1019400009B120468847606D00282BD0606DC00724
:1019500014D0052084F835002068016821F00101C9
:1019600001600098401C0090B84203D820680068CD
:10197000C007F6D184F8349084F83580E16C0029F2
:1019800010D001B02046BDE8F04308470168C90502
:10199000D5D4016821F01001016084F8349084F8F6
:1019A0003580CCE7BDE8F883280000202DE9F04120
:1019B000044600F053F906465CB1002584F8345023
:1019C000022084F835002068016821F001010160DF
:1019D0000DE00120BDE8F08100F040F9801B0528F2
:1019E00005D920206065032084F83500F2E72068DF
:1019F0000068C007F0D12268116820480140D4E98E
:101A000001031843D4E90336334318436369184389
:101A1000A3691843E3691843236A18430843616ABA
:101A2000042903D1D4E90B1319430843106020683B
:101A30004069666A20F0070130460E4301270428FA
:101A40000CD1A06A0643E06A40B12046FFF794FA41
:101A500020B14020606584F83570BAE7206846619F
:101A60002046FFF775FA94F85C203F219140816091
:101A7000656584F835700020ACE700003F8010F009
:101A800070B5044600F0EAF80546601C02D0044830
:101A90000078044400F0E2F8401BA042FAD370BD85
:101AA0001C0000202DE9F84FDFF874B100224FF040
:101AB00001084FF0030A4FF00F090BF1040E00BFAD
:101AC0000B6808FA02F42340A3426ED14D68022D40
:101AD00001D0122D0ED1D50800EB850CDCF820507A
:101AE0005607F70E09FA07F6B5430E69BE402E43B6
:101AF000CCF82060066855000F790AFA05FC07F05B
:101B0000030726EA0C06AF40374307604E68012EF4
:101B100005D0022E03D0112E01D0122E0ED18668D0
:101B2000CF6826EA0C06AF40374387604668A64375
:101B30000C79C4F30014944034434460C4688E6844
:101B400024EA0C04AE402643C6604C68E40060D52D
:101B5000344C256845F480452560246822F003054F
:101B600004F480440094304C2E19D6F808489507A8
:101B70002F0F09FA07F5AC432C4DA84201D10025DF
:101B80001FE02B4DA84201D101251AE0294DA842A2
:101B900001D1022515E0284DA84201D1032510E00E
:101BA000264DA84202D104250BE032E0244DA84284
:101BB00001D1052505E0234DA84201D1062500E00D
:101BC0000725BD402543C6F80858DBF800405D46B0
:101BD0004E689C43F60300D51C432C60DEF80040A1
:101BE00075464E689C43B60300D51C432C600C4DD3
:101BF00008352C684E689C43F60200D51C432C60C7
:101C0000074D0C352C684E689C43B60200D51C432A
:101C10002C60521C102AFFF453AFBDE8F88F00006F
:101C2000003C0140443802400030014000000240C6
:101C30000004024000080240000C02400010024074
:101C4000001402400018024042694A404261704755
:101C50000AB1816170470904FBE700000148806810
:101C6000704700001C00002070B5040004D094F8F8
:101C70003D00002510B106E0012070BD84F83C5005
:101C8000204600F0A1FB242084F83D002068016874
:101C900021F00101016000F035FD33492268B0FBFD
:101CA000F1F15160314A6368934206D94FF496735B
:101CB00059434FF47A73B1FBF3F12368491C19625D
:101CC000616891420BD84900B0FBF1F2C2F30B02FC
:101CD000042A01D2042019E0B0FBF1F016E0A36859
:101CE0009BB301EBC10202EB0112B0FBF2F242F432
:101CF0008042120530D04BB301EBC10202EB01115F
:101D0000B0FBF1F040F4804040F400402168C8612D
:101D1000D4E90701084321680860D4E903100843A7
:101D200021688860D4E9050108432168C8602068FB
:101D3000016841F0010101602564202084F83D0024
:101D4000256384F83E50002070BD00E006E001EB02
:101D50004102B0FBF2F2CCE70120D7E701EB4101F1
:101D6000B0FBF1F0D0E7000040420F00A086010078
:101D70002DE9F84F1F4690468A460446DDF8289024
:101D8000FFF76CFF054694F83D0020286FD119231A
:101D900001226E492046009501F007FC0028F5D18C
:101DA00094F83C00012862D0012084F83C002068AF
:101DB0000168C90703D1016841F001010160206891
:101DC000016821F400610160222084F83D001020A8
:101DD00084F83E0000262664C4F8248067855C48A9
:101DE000E062608D20852B464A465146204601F030
:101DF00033FA28B1206C84F83C60042841D04DE0CF
:101E0000208D544F68B1012814D002282068016841
:101E100016D041F4806101602068416980690090BA
:101E200085E02068416981690091016841F4007191
:101E300001607CE02068016821F480610160F0E7C6
:101E400021F4806101602068016841F40061E2E7EB
:101E5000032849D801280BD0022817D04B4600226E
:101E600039462046009501F0A0FBB8B92AE06AE0A7
:101E70002A464946204601F00DFC28B1206C202856
:101E80000CD00120BDE8F88F206845E04B460022C9
:101E900039462046009501F088FB08B10320F1E7A0
:101EA0002068016841F40071016020680169606A7E
:101EB000421C62620170208D401E2085608D401E94
:101EC0006085E1E72068016821F480610160206895
:101ED0000169606A421C62620170208D401E20858B
:101EE000608D401E6085D1E72A464946204601F0B4
:101EF000D1FB0028C2D120680269606A411C61627E
:101F00000270208D401E2085608D401E60852068F7
:101F10004169C94349070AD40169606A421C626287
:101F20000170208D401E2085608D401E6085208DB3
:101F300000288DD1202084F83D0084F83E6084F88C
:101F40003C6000209EE702209CE700000200100099
:101F50000000FFFF040001002DE9F84F1F469046E6
:101F60008A460446DDF82890FFF778FE064694F886
:101F70003D0020287ED119230122434920460096A6
:101F800001F013FB00287DD194F83C00012879D0A2
:101F9000012084F83C0020680168C90703D101686A
:101FA00041F0010101602068016821F400610160D5
:101FB000212084F83D00102084F83E00002525648F
:101FC000C4F8248067853148E062608D20853346FF
:101FD0004A465146204601F0AFF928B1206C84F8FA
:101FE0003C5004284CD00DE0206841698069009085
:101FF00030E032464946204601F07DFB28B1206C96
:10200000042838D00320BDE8F88F606A411C616263
:10201000216800780861608D401E6085208D401E1B
:1020200080B2208521684A69D24352070BD450B14F
:10203000606A421C626200780861608D401E6085A3
:10204000208D401E208532464946204601F086FA02
:102050000028D4D1208D0028CBD154F83D0B016845
:1020600041F400710160202004F81E09E5776577CE
:102070000020C8E706E02068016841F400710160B3
:102080000120C0E70220BEE7020010000000FFFFB1
:102090002DE9FF4F83B09A46DDE911879346044648
:1020A000DDF84090FFF7DAFD054694F83D00202862
:1020B00074D11923012272492046009501F075FA66
:1020C0000028F5D194F83C00012867D0012084F85D
:1020D0003C0020680168C90703D1016841F0010193
:1020E00001602068016821F400610160222084F809
:1020F0003D00402084F83E0000262664C4F8249069
:10210000A4F82A805F48E062608D2085CDE90075E3
:1021100053465A462046049901F058F928B1206CDC
:1021200084F83C60042843D076E0208DC8B10128B3
:1021300020D00228206823D0416980690090208D3A
:1021400003286BD801282AD04F4902283B464FF07C
:10215000000200955BD08846204601F026FAE8BBD5
:1021600040E02068416981690091016841F4007193
:10217000016076E02068016821F480610160F0E789
:10218000016821F4806101602068016841F4006108
:102190000160206841698069009062E06EE02A4633
:1021A0003946204601F076FA30B1206C202833D031
:1021B000012007B0BDE8F08F206847E02068016883
:1021C00041F40071016020680169606A421C62622A
:1021D0000170208D401E2085608D00E01CE0401EB7
:1021E0006085E9E72068016821F48061016020686A
:1021F0000169606A421C62620170208D401E208568
:10220000608D401E60853B46002241460095204679
:1022100001F0CBF90028D1D00320CAE72A4639467D
:10222000204601F037FA0028BFD120680169606AB2
:10223000421C62620170208D401E2085608D401E10
:10224000608520684169C94349070AD40169606A09
:10225000421C62620170208D401E2085608D401EF0
:102260006085208D00287FF46AAF202084F83D002F
:1022700084F83E6084F83C6000209AE7022098E7EA
:10228000020010000000FFFF040001002DE9FF4FD5
:1022900083B09A46DDE9118793460446DDF8409005
:1022A000FFF7DCFC064694F83D0020287DD1192379
:1022B000012243492046009601F077F900287CD19D
:1022C00094F83C00012878D0012084F83C00206874
:1022D0000168C90703D1016841F00101016020686C
:1022E000016821F400610160212084F83D00402054
:1022F00084F83E0000252564C4F82490A4F82A80C0
:102300003048E062608D2085CDE9007653465A461C
:102310002046049901F0D2F880B3206C84F83C5038
:10232000042848D008E032463946204601F0E3F957
:1023300030B1206C042839D0032007B0BDE8F08FFD
:10234000606A411C6162216800780861208D401E2E
:1023500080B22085618D491E618521684A69D2431A
:1023600052070BD468B1606A421C6262007808614F
:10237000208D401E2085608D401E6085208D0028A8
:10238000D1D132463946204601F0E8F80028D0D1B4
:1023900054F83D0B016841F400710160202004F8FD
:1023A0001E09E57765770020C7E706E02068016829
:1023B00041F4007101600120BFE70220BDE7000089
:1023C000020010000000FFFF10B586B00446142183
:1023D0006846FDF77CFF13492068884220D11248E7
:1023E000016841F0020101600068694600F00200E6
:1023F0000590C0200090122001900120029003203F
:102400000390042004900948FFF74CFB0648103065
:10241000016841F400110160006800F400100590AB
:1024200006B010BD005400403038024000040240A5
:102430000248816802781144816070471C000020C6
:102440000B4810B5016841F400710160016841F466
:1024500080610160016841F480710160032000F037
:102460006FF8002000F006F800F024F8002010BDFE
:10247000003C024070B50D4D04464FF47A71287847
:10248000B1FBF0F00A490968B1FBF0F000F034FB51
:1024900048B9102C07D200222146501E00F030F817
:1024A00000206C6070BD012070BD00001C00002089
:1024B000280000200B4882B0016841F4804101608F
:1024C000006800F4804000900648001F016841F059
:1024D00080510160006800F080500090072002B039
:1024E00000F02EB84438024000F01F020121914054
:1024F0004009800000F1E020C0F8001170470000A2
:10250000F0B40E4B1B680C46C3F30223C3F107055E
:10251000042D00D90425191D072901D2002300E04C
:10252000DB1E012606FA05F1491E214099409E4016
:10253000761E16403143F0BC01F0E6B90CED00E028
:10254000064900F0070208684FF6FF03184040EA0A
:102550000220034A10430860704700000CED00E0C1
:102560000000FA052DE9F8431748016841F0805151
:1025700001600068154F00F08050012600903E6415
:10258000FFF76CFB05464FF47A78114C05E000BF6D
:10259000FFF764FB401B40450DD86068C003F7D5CA
:1025A0007E64FFF75BFB0546464607E0FFF756FBF8
:1025B000401BB04202D90320BDE8F8836068800365
:1025C000F4D50020F8E700004038024000000E4239
:1025D000007000402DE9F0470E46050065D0DFF899
:1025E0001481D8F80000F7B200F00F00B04207D213
:1025F00088F80070D8F8000000F00F00B04254D105
:1026000028683D4C810712D5400703D5206840F467
:10261000E05020602878000703D5206840F460402F
:1026200020602068A96820F0F00008432060287826
:10263000C0072DD0304968680839012812D0022817
:1026400013D0032811D00968890700292DDA2168E1
:1026500021F0030101432160FFF700FB814641F2B5
:10266000883A0EE009688903EFE709688901ECE719
:10267000FFF7F4FAA0EB0901514502D90320BDE8A8
:10268000F0872068696800F00C00B0EB810FEFD193
:10269000D8F80010404601F00F01B14207D9077089
:1026A000006800F00F00B04201D00120E7E7287871
:1026B000400705D52068E96820F4E0500843206011
:1026C0002878000706D52068296920F4604040EA90
:1026D000C100206000F036F82168084AC1F30311F8
:1026E000515CC840064908600020FFF7C3FE002087
:1026F000C5E70000003C024008380240644F000873
:10270000280000200448054900680968044AC1F30C
:102710008221515CC84070472800002008380240E0
:10272000744F00080448054900680968044AC1F369
:102730004231515CC84070472800002008380240F0
:10274000744F0008194810B5006810F00C011848C3
:1027500018D0042916D0154C241F082913D00C2991
:1027600010D1216801F03F02216821680023C1F3E4
:102770008811A1FB0001FDF741FD2168C1F3027141
:10278000B0FBF1F010BD216801F03F022168216823
:102790000023C1F38811A1FB0001FDF72FFD216883
:1027A000C1F30141491C4900EAE700000838024032
:1027B0000024F4002DE9F84F0546DFF828B300782F
:1027C000ABF10407C007A7F1040451D0DBF80010F7
:1027D0005846C1F3810101290FD00168C1F381017D
:1027E000022902D13968490207D40068C0F3810088
:1027F000032809D13868400206D52068800337D500
:102800006868002872D033E06868B0F5803F10D067
:10281000B0F5A02F206810D020F480302060206810
:1028200020F4802020606868A8B1FFF717FA0646F8
:102830000DE0206840F48030F4E740F48020206010
:10284000F7E700BFFFF70AFA801B642878D82068F2
:102850008003F7D50CE0FFF701FA064605E000BF5C
:10286000FFF7FCF9801B6428F0D820688003F7D4B8
:102870002878DFF8749280074FF0000A46D5DBF81D
:102880000010584611F00C0F0FD00168C1F3810100
:10289000022902D13968490207D50068C0F38100D6
:1028A000032809D13868400206D42068800715D56E
:1028B000E86801281AD111E0E868C0B10120C9F820
:1028C0000000FFF7CBF9064605E000BFFFF7C6F9A9
:1028D000801B0228BAD820688007F7D520682969AC
:1028E00020F0F80040EAC10020600FE0F7E0C9F8EE
:1028F00000A0FFF7B3F9064605E000BFFFF7AEF909
:10290000801B02281CD820688007F7D4287800078D
:1029100027D5DFF8D0817548696908F16C0881B165
:1029200001210160FFF79AF9064604E0FFF796F9E6
:10293000801B022804D8D8F800008007F6D510E0E4
:1029400089E0C0F800A0FFF789F9064605E000BF5E
:10295000FFF784F9801B02287DD8D8F80000800793
:10296000F6D42878400769D55E484FF00008383023
:102970000068C0000BD45B483830016841F08051DA
:10298000016000684FF0010800F080500090584E40
:102990003068C00511D4306840F480703060FFF7B3
:1029A0005DF9009006E000BFFFF758F90099401A62
:1029B000022850D83068C005F6D54A4EA868683657
:1029C00001280FD00528306810D020F001003060B9
:1029D000306820F004003060A868B8B1FFF73EF915
:1029E00000900FE0306840F00100F4E740F0040090
:1029F0003060F7E7FFF732F90099411A41F2883069
:102A0000814264D830688007F4D50EE0FFF726F9DC
:102A1000009007E0FFF722F90099411A41F288304F
:102A2000814254D830688007F4D4B8F1000F05D043
:102A30002C483830016821F080510160A869A8B3A2
:102A4000DBF80010C1F38101022948D00228C9F83F
:102A500060A005D000E03AE0FFF700F9054639E054
:102A6000FFF7FCF8064604E0FFF7F8F8801B0228A1
:102A70002DD820688001F7D4F5E907010843E968FB
:102A80001C4A490802EB0141AA6841EA8211084345
:102A9000297C40EA0160297D40EA0170386001200C
:102AA000C9F86000FFF7DAF8054606E015E000BF58
:102AB000FFF7D4F8401B022809D820688001F7D519
:102AC0000BE000BFFFF7CAF8401B022802D9032021
:102AD000BDE8F88F20688001F4D40020F8E70120D9
:102AE000F6E700000838024000004742800E4742E7
:102AF000007000400000FFFF10B5401EB0F1807F65
:102B000001D3012010BD4FF0E02460610F21601758
:102B100000F0FAFE0020A06107202061002010BD17
:102B20007047704710B590F83820012A25D001224F
:102B300080F83820CA688C6822F4407222434C68BE
:102B400022F4806222430C6822F4006222430C6962
:102B500022F4805222434C6922F4005222438C69B1
:102B600022F48042224322F40041026800232143E0
:102B7000516480F83830002010BD022010BD30B5FF
:102B800090F83820012A20D0012280F83820022332
:102B900080F8393003685C6824F070045C60036876
:102BA0005C680D682C435C6003689C6824F08004BA
:102BB0009C6003689C6849680C439C6080F83920DD
:102BC000002180F83810084630BD022030BD10B515
:102BD000040003D094F8390010B107E0012010BDC3
:102BE000002084F83800204600F00CF8022084F819
:102BF0003900211D206800F095FF012084F839007C
:102C0000002010BD08B50068174988422AD117482E
:102C1000016841F0010101600068002200F001003C
:102C2000009011461820FFF76BFC1820FFF75CFCA2
:102C3000002211461920FFF763FC1920FFF754FC0E
:102C4000002211461A20FFF75BFC1A20FFF74CFC0C
:102C5000002211461B20FFF753FCBDE808401B2053
:102C6000FFF742BC08BD00000000014044380240AC
:102C700070B5044690F83800012817D0012584F873
:102C80003850022084F839002068826822F07702E8
:102C900022F47F4282600868502837D00DDC20285B
:102CA00059D005DC88B3102841D151E0022070BD15
:102CB000302853D040283AD13FE060282ED07028E9
:102CC0000BD0B0F5805F03D0B0F5005F2FD110E0DE
:102CD0002068816821F0070115E0CB68D1E9012166
:102CE000206800F08AFF2168886840F077008860DB
:102CF0001DE0CB68D1E90121206800F07EFF20684B
:102D0000816841F48041816011E01EE0CA68496831
:102D1000206801F03BF85021206806E0CA68496845
:102D2000206801F044F86021206800F070FF84F80A
:102D30003950002084F8380070BDCA68496820689E
:102D400001F024F840212068EFE700212068ECE73B
:102D500010212068E9E720212068E6E7302120687B
:102D6000E3E7704770B50446006801694FF000055D
:102D7000C943890715D4C168C943890711D4E91E1D
:102D8000016101202076206880698007204602D0FA
:102D9000FFF7E7FF04E000F0C3F8204600F045F934
:102DA000257620680169C943490717D4C168C9431A
:102DB000490713D46FF004010161022020762068D6
:102DC000806910F4407F204602D0FFF7CAFF04E07C
:102DD00000F0A6F8204600F028F925762068016961
:102DE000C943090716D4C168C943090712D46FF053
:102DF00008010161042020762068C0698007204610
:102E000002D0FFF7AEFF04E000F08AF8204600F0A1
:102E10000CF9257620680169C943C90617D4C16831
:102E2000C943C90613D46FF0100101610820207650
:102E30002068C06910F4407F204602D0FFF791FF60
:102E400004E000F06DF8204600F0EFF825762068E9
:102E50000169C943C90708D1C168C943C90704D179
:102E6000891E0161204600F0FDF820680169C94310
:102E7000090609D4C168C943090605D46FF0800169
:102E800001612046FFF74CFE20680169C9434906ED
:102E900009D4C168C943490605D46FF040010161F6
:102EA000204600F0E0F820680169C94389060BD488
:102EB000C168C943890607D46FF02001016120462B
:102EC000BDE87040FFF72DBE70BD000010B586B0A4
:102ED000044614216846FDF7FAF90E492068884235
:102EE00016D10D480021026842F00102026000681C
:102EF00000F0010005904FF4807000900220CDE9B1
:102F0000010103900120049069460448FEF7CAFDC0
:102F100006B010BD00000140303802400000024001
:102F2000704770B5044690F838000D4601280DD062
:102F3000012684F83860022084F8390042B1042A5E
:102F400018D0082A2AD00C2A4DD139E0022070BDB1
:102F5000206800F065FE2068816941F00801816108
:102F60002068816921F004018161206881692A69F2
:102F7000114311E0206800F07FFE2068816941F470
:102F8000006181612068816921F48061816120682C
:102F900081692A6941EA0221816124E0206800F008
:102FA0009DFE2068C16941F00801C1612068C169C6
:102FB00021F00401C1612068C1692A69114311E04F
:102FC000206800F0BBFE2068C16941F40061C16166
:102FD0002068C16921F48061C1612068C1692A69E2
:102FE00041EA0221C16184F83960002084F8380088
:102FF00070BD10B5040003D094F8390010B107E09B
:10300000012010BD002084F83800204600F00CF8A4
:10301000022084F83900211D206800F083FD012082
:1030200084F83900002010BD7047704710B5044681
:103030000068012200F0D6FD08492068884202D0CD
:103040000749884203D1416C41F400414164206842
:10305000016841F001010160002010BD0000014045
:10306000000401407047704770B5040004D094F824
:103070003900002510B106E0012070BD84F83850F9
:10308000204600F023F8242084F839002068C16825
:1030900021F40051C160204600F09CFE20680169C7
:1030A00021F4904101612068416921F02A014161C8
:1030B0002068C16841F40051C160E563202084F8B4
:1030C000390084F83A00002070BD000030B587B0A8
:1030D000044614216846FDF7FAF8214D216821487D
:1030E000022201230324A94219D11E4910310D687F
:1030F00045F400350D60096801F40031059101685F
:1031000041F0010101600068694600F0010005908E
:103110000C208DE81D000720049013481BE0134D80
:10312000A9421AD10F4914310D6845F020050D60F0
:10313000096801F020010591016841F00401016076
:103140000068694600F004000590C0208DE81D006D
:10315000082004900648FEF7A5FC07B030BD00002B
:10316000004400403038024000000240001401409A
:10317000000802402DE9F843044690F839001F4644
:1031800016460D46202850D1A5B19EB194F83800BE
:1031900001284AD0012084F838004FF00008C4F814
:1031A0003C80212084F83900FEF758FDA684814632
:1031B000E68426E00120BDE8F883E08C401EE08430
:1031C000A0684B46B0F5805F4FF000024FF08001E1
:1031D0002046009703D000F053FFE8B90DE000F05F
:1031E0004FFFC8B928882168C0F3080048602069EB
:1031F00008B16D1C05E0AD1C03E0216815F8010B5A
:103200004860E08C0028D8D14B460022402120465F
:10321000009700F035FF08B10320CCE7202084F8A8
:10322000390084F838800020C5E70220C3E7FEE7B4
:1032300001684A69D24352050CD46FF480624A6136
:1032400004210164002140F8301F202242730173E1
:1032500001207047002070472DE9F84F0446C06AEE
:103260001E4692460D4621680A6842F480620A6052
:10327000042807D0012805D010F5803F02D0206B2C
:10328000112804D12068016841F4807101604FF079
:1032900001185346002241462046009600F085F969
:1032A000B8BB206908F10109B0F5804F12D00620A3
:1032B000216800EAD51747F0F0000861334652460E
:1032C00008F10701204600F0A1F938B1206C04286C
:1032D0002FD01EE0E8B240F001001FE02168E8B204
:1032E0000861334652464946204600F08FF90028CF
:1032F000ECD12068416981690091016841F48071D5
:1033000001605346002241462046009600F04DF9E8
:1033100010B10320BDE8F88F47F0F1002168086183
:10332000334652464946204600F070F90028CDD178
:10333000F0E70120EEE70000F8B50446C06A1E463B
:103340000D461746042807D0012805D010F5803F08
:1033500002D0206B122804D12068016841F48071EA
:103360000160134600224FF001112046009600F044
:103370001CF9A0B92069B0F5804F12D00620216851
:1033800000EAD51040F0F000086133463A460E4995
:10339000204600F03BF938B1206C042811D00320FE
:1033A000F8BD05F0FE0000E0E8B2216808610649BA
:1033B00033463A46891F204600F028F90028EBD111
:1033C000F8BD0120F8BD0000080001002DE9F84F0C
:1033D0000446006889460B9D01689846174641F4EB
:1033E000806101602068016841F48071016000958E
:1033F0004FF0011A0022514620460A9B00F0D5F8F2
:10340000F0BB216809F0FE0008610AF1010B2B46B0
:10341000594620460A9A00F0F9F818B1206C0428A1
:1034200012D03AE020684169806900902A4620461F
:103430000A9900F060F950B1206C04282DD1206861
:10344000016841F4007101600120BDE8F88FFEB20F
:10345000B8F1010F09D02168380A08612A462046D0
:103460000A9900F048F90028E6D1206806612A464A
:1034700020460A9900F03FF90028DDD1206800E0DD
:103480000BE0016841F48071016000950022514613
:1034900020460A9B00F089F808B10320D5E721688F
:1034A00009F0FF0040F0010008612B465946204614
:1034B0000A9A00F0ABF80028B0D1C6E72DE9F8432E
:1034C000044600680D46DDE90897016898461646EF
:1034D00041F4807101604B4600224FF001112046FB
:1034E000009700F062F8E8B9216805F0FE00086175
:1034F0003B464A461849204600F088F828B1206C1F
:1035000004280FD10120BDE8F88320684169806953
:1035100000903A464946204600F0EDF820B1206C74
:10352000042813D00320EEE7F5B2B8F1010F09D05B
:103530002168300A08613A464946204600F0DBF827
:103540000028ECD1206805610020DCE720680168D4
:1035500041F400710160D5E70200010070B5164624
:103560000D4604461AE02046FFF762FE08B101202E
:1035700070BD681C12D025B1FEF770FB801BA842FD
:103580000CD954F8400F40F0200044F810090020F6
:103590002060202161732073032070BD2068406982
:1035A000C0434007DFD4002070BD2DE9F0471E4620
:1035B00090460D460446C1F30747DDF8209012E01F
:1035C000701C10D02EB1FEF749FBA0EB0900B042F1
:1035D00009D9002044F8300F20216173A0732073B3
:1035E0000320BDE8F0872068012F0AD0806925EA12
:1035F00000000004000C06D000214145E0D000206E
:10360000EFE74069F3E70121F7E700002DE9F04714
:103610009A4691460D46044600264FF02008C1F315
:1036200007472AE020684069C043400512D420685B
:10363000016841F40071016021686FF480604861A5
:1036400004202064266384F83D8084F83C600120D7
:10365000BDE8F087B9F1FF3F0FD0B9F1000F05D0F9
:10366000FEF7FCFAA0EB0A01494506D944F8306F91
:1036700084F80D8026730320EAE72068012F07D025
:10368000D0F8180025EA00000004000CE0D0C9E7DB
:103690004069F7E72DE9F041002590460E460446C3
:1036A000202721E04069C043C0060CD421686FF098
:1036B000100048612564256384F83D7084F83C500F
:1036C0000120BDE8F0812EB1FEF7C8FAA0EB08009A
:1036D000B04209D954F8400F40F0200044F80409E2
:1036E000677025700320ECE720684169C9434906EB
:1036F000D8D40020E5E770B516460D4604461AE01A
:103700002046FFF795FD08B1012070BD681C12D05E
:1037100025B1FEF7A3FA801BA8420CD954F8400F3C
:1037200040F0200044F8100900202060202161733F
:103730002073032070BD20684069C0430006DFD4B9
:10374000002070BD7FB500241448009401940294B9
:1037500011490394016001254FF480310561C0E9EE
:1037600001140F490462C0E90A140226C460C0E9CA
:10377000065605634561FDF7A8FD07200094CDE9D5
:10378000015069460548FDF753FCCDE900566946EE
:103790000248FDF74DFC7FBD002001402C000020B9
:1037A0000100000F09480849016010214160002113
:1037B0008160C16001614161017641768176C176A7
:1037C00001774177FDF732BF0064004074000020AC
:1037D00070B586B014216846FCF779FD1A480024BC
:1037E000016841F080010160016801F080010591EC
:1037F000016841F001010160016801F001010591DA
:10380000016841F004010160016801F004010591C3
:10381000016841F00201016000680C4E00F00200F6
:103820004FF484650590002229463046FEF710FAD1
:1038300001200095CDE90104694630460394FEF766
:1038400031F906B070BD000030380240000002407F
:1038500010B594B000240E940F9410941194129407
:103860001C2168461394FCF732FD1C2107A8FCF7C5
:103870002EFD1F481D49016040F28331C0E901144B
:1038800040F2E731C0E903144461FFF7A0F94FF4B7
:1038900080500E900EA91648FFF7EAF91448FFF77A
:1038A000A8FB129412A912481394FFF768F960203C
:1038B000CDE900040294039404940594002269461F
:1038C0000B480694FFF72DFB0794089409944FF4D6
:1038D00000500A94CDE90B4007A905480D94FFF765
:1038E00021F90348FFF7F2FA14B010BD00000140BF
:1038F000F000002010B5029CE31A4343501A93FBDA
:10390000F0F010BDFEE770470907090E002806DA3F
:1039100000F00F0000F1E02080F8141D704700F166
:10392000E02080F800147047704770472DE9FF4190
:103930000646072002900120CDE900300F461546CB
:1039400069463846FDF774FB3846FDF78FFD104990
:103950003846FDF739FD3846FDF716FC0446384673
:10396000FDF7E2FDB420A4F5C874444340F26C7046
:1039700094FBF0F000EE100A06EB8600092190FBA4
:10398000F1F029681930B8EEC00A4863BDE8FF813C
:10399000A0860100FEB50446E52042F210751646E9
:1039A0000F468DF804000095012301AA80212068AC
:1039B000FEF7D2FA08BB0095022302AA80212068F4
:1039C000FEF7D6F9C8B9BDF8080040BA01F016F8FC
:1039D00087ED000AE0208DF804000095012301AA7C
:1039E00080212068FEF7B8FA38B90095022302AAB0
:1039F00080212068FEF7BCF908B10020FEBDBDF8AB
:103A0000080040BA01F036F886ED000A0120FEBD3C
:103A1000FEF70EBD10B594B034216846FCF757FC94
:103A200014210DA8FCF753FC1B480024016841F049
:103A300080510160006800F08050129017480168C2
:103A400041F440410160006800F4404012900120C0
:103A500000900004019002204105CDE906010821F3
:103A60000891B42109910421CDE90A100C9068460F
:103A7000FEF7A0FEFEF776FD0F200D900320CDE9A6
:103A80000E04C00210904FF48050119005210DA833
:103A9000FEF7A0FD14B010BD403802400070004099
:103AA0001048016841F4700101600F48016841F05D
:103AB000010101600C4A00210832116002680B4BC1
:103AC0001A400260031D0A4A1A60026822F480222A
:103AD000026005480C3001600249580680390860D0
:103AE0007047000088ED00E000380240FFFFF6FE5E
:103AF000103000240148FFF735B90000F000002025
:103B00000148FFF72FB90000F00000200148FFF73F
:103B100029B90000F00000200148FFF723B9000098
:103B2000F0000020F0B50268234B244D244E254FB1
:103B3000254C4FF0804C984209D0604507D0A842F0
:103B400005D0B04203D0B84201D0A04204D122F047
:103B5000700E4A6842EA0E0298421BD0604519D0A6
:103B6000A84217D0B04215D0B84213D0A04211D00D
:103B7000164DA8420ED0164DA8420BD0154DA842A6
:103B800008D0154DA84205D0144DA84202D0144DBE
:103B9000A84203D122F44075CA682A4302608A68A9
:103BA000C2620A688262984201D0A04201D10969CA
:103BB000016301214161F0BD0000014000040040AB
:103BC00000080040000C004000040140004001409B
:103BD000004401400048014000180040001C004023
:103BE0000020004010B50123046A8B409C4304620E
:103BF000036A8A401343036210BD10B5846842EA29
:103C0000032224F47F440A432243826010BD826869
:103C100022F070020A4342F0070181607047000001
:103C200030B5026A22F001020262026A43688469C6
:103C30000D6824F07304254322F002048A682243AD
:103C40000B4CA04202D00B4CA0420BD122F0080436
:103C5000CA6823F4407322434C6922F004021C43D7
:103C60008B6923434360856149684163026230BDCB
:103C7000000001400004014030B5026A22F0100249
:103C80000262026A436884690D6824F4E64444EAE7
:103C900005248D6822F0200242EA05120D4DA8424B
:103CA00002D00D4DA8420ED1CD6822F0800242EA2A
:103CB00005124D6923F4406343EA85038D6922F0C0
:103CC000400243EA8503436084614968816302627C
:103CD00030BD0000000001400004014030B5026A20
:103CE00022F480720262036A4268C46923F400739A
:103CF00024F073050C682C438D6843EA05230D4DB1
:103D0000A84202D00C4DA8420ED1CD6823F4006326
:103D100043EA05234D6922F4405242EA05128D69B7
:103D200023F4806342EA05124260C4614968C163BA
:103D3000036230BD000001400004014030B5026A5A
:103D400022F480520262046A4268C3690D6823F457
:103D5000E64343EA05238D6824F4005444EA05341D
:103D6000084DA84202D0084DA84204D14D6922F462
:103D7000804242EA85124260C3614968016404627C
:103D800030BD0000000001400004014010B5036A8E
:103D9000046A24F001040462846924F0F00444EA13
:103DA000021423F00A020A438461026210BD10B5B6
:103DB000036A23F0100303628369046A23F47043E7
:103DC00043EA023224F0A00343EA01118261016256
:103DD00010BD00002DE9F04104460068016921F49E
:103DE0004052E168114301612168C86849F20C62E0
:103DF00090432369A268E5691A4363692B431A4318
:103E00000243CA602168486920F44072A0691043E7
:103E10004861E1696425B1F5004F9748974A2168E8
:103E20004FF032083FD0914201D081427CD1FEF761
:103E300079FC00EBC00101EB001061688900B0FB68
:103E4000F1F6FEF76FFC00EBC00101EB00106168BA
:103E50008900B0FBF1F0B0FBF5F06FF018014843BA
:103E600006EB800108EB0110B0FBF5F000F0F00666
:103E7000FEF758FC00EBC00101EB001061688900FF
:103E8000B0FBF1F0B0FBF5F006EB0016FEF74AFCD4
:103E900000EBC00101EB001061688900B0FBF1F795
:103EA000FEF740FCD2E0914201D081423DD1FEF7C5
:103EB00039FC00EBC00101EB001061684900B0FB68
:103EC000F1F0B0FBF5F00601FEF72CFC00EBC001B1
:103ED00001EB001061684900B0FBF1F7FEF722FC2E
:103EE00000EBC00101EB001061684900B0FBF1F08C
:103EF000B0FBF5F06FF01801484307EB800108EBC9
:103F0000C100B0FBF5F000F0F80006EB4006FEF74C
:103F100009FC00EBC00101EB001061684900B0FB37
:103F2000F1F7FEF7FFFB3CE055E0FEF7EBFB00EBA3
:103F3000C00101EB001061684900B0FBF1F0B0FB7B
:103F4000F5F00601FEF7DEFB00EBC00101EB00100F
:103F500061684900B0FBF1F7FEF7D4FB00EBC0014C
:103F600001EB001061684900B0FBF1F0B0FBF5F027
:103F70006FF01801484307EB800108EBC100B0FB6C
:103F8000F5F000F0F80006EB4006FEF7BBFB00EB97
:103F9000C00101EB001061684900B0FBF1F7FEF7CA
:103FA000B1FB00EBC00101EB001061684900B0FB00
:103FB000F1F0B0FBF5F06FF01801484307EB80011A
:103FC00008EBC100B0FBF5F000F0070021683044B9
:103FD0008860BDE8F081FEF795FB00EBC00101EBC6
:103FE000001061688900B0FBF1F6FEF78BFB00EB77
:103FF000C00101EB001061688900B0FBF1F0B0FB7B
:10400000F5F06FF01801484306EB800108EB011052
:10401000B0FBF5F000F0F006FEF774FB00EBC0011A
:1040200001EB001061688900B0FBF1F0B0FBF5F026
:1040300006EB0016FEF766FB00EBC00101EB00107B
:1040400061688900B0FBF1F7FEF75CFB00EBC00193
:1040500001EB001061688900B0FBF1F0B0FBF5F0F6
:104060006FF01801484307EB800108EB0110B0FB2B
:10407000F5F000F00F00A9E7001401400010014026
:104080002DE9F041984617460E460446069D1DE070
:10409000681C1BD02DB1FDF7E1FDA0EB0800A84284
:1040A00014D92068C16821F4D071C16020684169C9
:1040B00021F001014161202084F8390084F83A00A0
:1040C000002084F838000320BDE8F08120680068F3
:1040D00036EA000004D00020B842D9D00020F3E72F
:1040E0000120F9E7FEE700000FB4084B10B504A962
:1040F00002AA039800F0DEF8044602A9002000F0AE
:1041000070FC204610BC5DF814FB0000E349000879
:1041100002E008C8121F08C1002AFAD17047704790
:10412000002001E001C1121F002AFBD170470000EE
:104130002DE9FF5F82B00021DDE90430020DDDF8DA
:1041400040B0034318D044F61050A2F2FF3242436D
:104150001514119801281FD0A5EB0B00401C5FEA35
:10416000000A4FF000064E4FDFF83891B046504637
:1041700015D5CAF1000413E0119801244AA30128BF
:1041800001D16FEA0B010298119AC0E90031C0E930
:10419000024206B0BDE8F09FCBF10000DFE7044625
:1041A0000021404A491842EB0450CDE9001012E0CA
:1041B000E00707D032463B4640464946FCF739F90E
:1041C0008046894632463B4610461946FCF731F98F
:1041D00006460F466410002CEAD1DDE90401DDE952
:1041E0000023BAF1000F06DAFCF723F942464B46EA
:1041F000FCF71FF905E0FCF7A5FA42464B46FCF731
:10420000A1FA04460E460022284BFCF723FB03D8F4
:104210004FF0FF30014607E00022254B2046314693
:10422000FCF760F8FCF7FDFA102409E0002C0ADB2B
:104230000A220023FBF7E2FF039B30321A55641E6B
:1042400050EA0102F2D1641C039AC4F11103144430
:10425000119A012A03D0012208430DD10AE0084334
:1042600004D000204FF0110B119072E7A3EB0B0567
:104270006D1E0DE05B4504DD4FF0000205F1010508
:1042800004E003DA4FF00002A5F10105002AECD0AA
:1042900002981199C0E90231C0E9004579E70000B0
:1042A000000014400000F03F300000000000F04328
:1042B0000000E03F2DE9FF4F95B09B46894606463A
:1042C00000250FE2252877D100242746F84A01214E
:1042D000059400E0044316F8013F203B01FA03F087
:1042E0001042F7D130782A2811D06FF02F033078A0
:1042F000A0F13002092A16D8059A44F0020402EB14
:10430000820203EB42021044761C0590EFE759F855
:10431000042B0592002A03DA504244F4005405901D
:1043200044F00204761C30782E2816D116F8010FBE
:1043300044F004042A280DD06FF02F023078A0F149
:104340003003092B09D807EB870302EB4303C71897
:10435000761CF3E759F8047B761C30786C280FD074
:1043600006DC4C2817D068280DD06A2814D104E048
:10437000742810D07A280FD10DE044F400140AE01C
:1043800044F4801401E044F440147278824202D173
:1043900004F58014761C761C307866280BD013DC6C
:1043A000582877D009DC002875D04528F6D0462853
:1043B000F4D047281AD19DE118E0632835D064284D
:1043C00079D0652812D195E1702873D008DC672870
:1043D000F1D069286FD06E280DD06F2806D1B5E0D6
:1043E00073282CD0752875D0782874D05A46179920
:1043F00090476D1C75E1C4F30250022809D00328D0
:104400000DD0D9F8001004280DD00D6009F1040971
:1044100067E1D9F80010EA17C1E90052F6E7D9F8C8
:1044200000100D80F2E70D70F0E719F8041B8DF80D
:10443000001000208DF80100EA46012003E059F841
:1044400004AB4FF0FF3061074FF0000102D40DE0E4
:1044500008F101018846B9420FDA8045F8DB1AF805
:1044600008100029F4D108E008F1010188468142D2
:10447000FADB1AF808100029F6D105985B46A0EB84
:10448000080721463846179A00F094FA284400EBB2
:10449000080507E04DE029E10DE01AF8010B5A4646
:1044A00017999047B8F10108F7D25B462146384684
:1044B000179A13E142E00A220092C4F302524FF02D
:1044C000000A022A08D059F804CB032A4FEAEC71FB
:1044D0000AD00DE029E02AE009F1070121F00702E6
:1044E000F2E802C1914609E00FFA8CFC4FEAEC7148
:1044F000042A03D14FFA8CFC4FEAEC71002907DA49
:104500000A460021DCF1000C61EB02012D2202E0E1
:10451000220504D52B228DF80420012203E0E207B6
:1045200001D02022F7E7904659E00A2102E010224C
:104530000DE010214FF0000A00910BE010224FF027
:10454000000A44F004040827009203E008224FF018
:10455000000A0092C4F30252022A05D059F804CB93
:104560000021032A08D009E009F1070121F0070220
:10457000F2E802C1914605E01FFA8CFC042A01D141
:104580000CF0FF0C4FF00008220728D5702806D049
:10459000009B83F0100353EA0A0305D00EE040228B
:1045A0008DF80420012208E05CEA010206D03022E6
:1045B0008DF804208DF8050002229046009B83F0C0
:1045C000080353EA0A030AD15CEA010201D1620737
:1045D00005D530228DF804204FF001087F1E5828A1
:1045E00004D034A003900EA802900DE036A0F9E7A5
:1045F00053466046009AFBF701FE84460398825CAE
:104600000298401E029002705CEA0100F0D102980C
:1046100006A9081A00F1200A600702D524F48034A4
:1046200000E00127574502DDA7EB0A0000E000206B
:1046300000EB0A01009005984144401A0590E00300
:1046400006D45B462146179A059800F0B3F9054455
:10465000002706E001A85A46C05D179990476D1CD7
:104660007F1C4745F6DBE0030CD55B462146179AD5
:10467000059800F09FF9054404E030205A46179948
:1046800090476D1C0099481E00900029F5DC08E059
:10469000029802995A460078491C0291179990474E
:1046A0006D1CBAF10001AAF1010AF1DC65E100001C
:1046B00009280100303132333435363738396162F8
:1046C00063646566000000003031323334353637BC
:1046D00038394142434445460000000000F058F993
:1046E0000544761C307800287FF4ECAD19B02846DC
:1046F000BDE8F08F620700D4062709F1070222F017
:10470000070CFCE80223E14603F000485FEA080CCE
:1047100002D00FF2702C0DE05FEA045C02D50FF2BC
:10472000682C07E05FEAC47C02D00FF2602C01E045
:10473000AFF2700C4FF0FF3823F00043CDF850C0BB
:1047400065280CD006DC452809D046281DD047280E
:104750003DD13DE0662818D067287ED138E00021A1
:10476000112F01DB112000E0781CCDE9000106A922
:104770000EA8FFF7DDFCDDE90F010E9A0391002181
:10478000009207F1010A04914DE04FF000400097BC
:10479000CDE9011006A90EA8FFF7CAFCDDE90F025A
:1047A00003920E9B11990022DDF80CA00093049255
:1047B00011B9791C00EB010AB7EB0A0004D4C0F16F
:1047C000FF3007F1010A0490AAEB0700019044E0D2
:1047D000012F00DA01270021112F01DD112000E057
:1047E0003846CDE9000106A90EA8FFF7A1FCDDE9D6
:1047F0000F010E9A0391002104910092BA462107FD
:104800000CD40399514500DA8A46BAF1010F05DD4F
:10481000009AAAF10101515C302908D0B84202DAAD
:1048200010F1040F06DA0121CDE9011015E0AAF11B
:104830000101E9E7002805DC049901440491AAEB91
:10484000000102E0411C514500DD8A460499401AEE
:10485000401C01904FF000400290200704D40198C2
:10486000504501DBCDF8048000208DF84F00029800
:104870000DF14F07B0F1004F25D02B200E9002987C
:104880004FF0020800280CDA404202902D200E90D2
:1048900007E00A210298FBF77AFE3031029007F810
:1048A000011DB8F10001A8F10108F2DC029800280E
:1048B000EFD1791E0E980870307800F0200040F09B
:1048C000450007F8020D12A8C01B00F10708149854
:1048D000007800B1012000EB0A01019801EBE071C2
:1048E00005984144401A401E0590E00306D45B46FB
:1048F0002146179A059800F05DF805441498007851
:1049000018B15A46179990476D1CE00324D55B46B1
:104910002146179A059800F04DF805441CE00498CC
:10492000002807DBDDE90301884203DD0098405CD5
:10493000179901E0179930205A469047049805F1DD
:104940000105401C04900198401E019004D12E20C6
:104950005A46179990476D1CBAF10001AAF1010A55
:10496000DDDC05E017F8010B5A46179990476D1CDE
:10497000B8F10001A8F10108F4DC5B462146179A62
:104980000598ABE62D0000002B0000002000000081
:104990002DE9F041044600251E461746880404D43C
:1049A00005E039462020B0476D1C641EF9D5284625
:1049B000BDE8F0812DE9F041044600251E469046F1
:1049C000C80301D5302700E02027880404D505E07E
:1049D00041463846B0476D1C641EF9D52846BDE8EF
:1049E000F0810A68531C0B6010707047884201DD2B
:1049F000084670479042FCDA1046704710B5FBF746
:104A00008AFD9FED131B53EC112BFBF712FD9FED5D
:104A1000121B53EC112BFBF70CFD9FED111B53ECFC
:104A2000112BFBF700FDFBF796FD00EE100AB5EE2B
:104A3000C00AF1EE10FA02D29FED0B0A10BD10EE83
:104A4000100A0A498842F9DD9FED090A10BD0000ED
:104A50000000000000405F40000000000000F03E49
:104A60000000000000001840000000000000C842E4
:104A70000000C84210B5FBF74EFD9FED0B1B53EC39
:104A8000112BFBF7D6FC9FED0A1B53EC112BFBF708
:104A9000D0FC9FED091B53EC112BFBF7C4FCFBF77B
:104AA0005AFD00EE100A10BDD7A3703D0AF765400D
:104AB000000000000000F03ECDCCCCCCCC6C4740D8
:104AC000A4B0FDF7BDFCFEF7A5FFFEF781FEC248CE
:104AD0000024016841F4800101600068224600F46E
:104AE0008000009021463820FDF70AFD3820FDF7B0
:104AF000FBFCBB48B9494FF4E1350160C0E9015402
:104B00000C26C460C0E904468461C461FEF7ACFAB7
:104B1000FEF79EFEFEF716FEB148B2494030016036
:104B2000C0E90154C460C0E904468461C461FEF771
:104B30009BFAAB4DAC48903D2860AC48C5E90104F8
:104B40004FF48040C5E903406C61AC61EC612846DC
:104B50002C62FDF789F8FEF725FEA5F12800FCF789
:104B600029FE40F2FF70CDE91E0408202094CDE913
:104B700021408DF88C40002105F15400FEF756FAD3
:104B800005F59E708046FCF739F805F588767620A5
:104B9000B0849748B5624FF47A740560051F6700CA
:104BA0000FE08F4893A1B430FFF79EFA82B28C4990
:104BB0002A802346B4318A48FEF7DCFA3846FCF7EF
:104BC0005FFF874841468030FBF7B4FF0028E8D0FC
:104BD00096F83200602835D04FF000088DA280484A
:104BE0008EA1B430FFF780FA82B27D492A80234635
:104BF000B4317B48FEF7BEFAAB46794A01233C3A12
:104C0000A2F1C4015A20FEF791FEBDEEC00A0021B8
:104C1000874810EE107AFCF7DBF9024603907048E3
:104C20003B4684A1B430FFF75FFA82B26C494FF47F
:104C30007A765C46ABF800203346B4316848FEF71C
:104C400099FA13E04FF0010883A2C8E7644884A1F1
:104C5000B430FFF749FA82B2614922803346B43159
:104C60005F48FEF787FA3046FCF70AFF604A121DDC
:104C7000111D101FFEF78EFE0028E7D0A146A06888
:104C8000FBF756FC04460D46D9F80C00FBF750FC28
:104C900041EC100B524853EC102B7DA1B430CDE900
:104CA0000045FFF721FA82B24D49A9F800203346AA
:104CB000B4314B48FEF75EFA3046FCF7E1FEB246EF
:104CC0004C4610E046487EA1B430FFF70DFA82B2A0
:104CD0004349228055465346B4314148FEF74AFACB
:104CE0002846FCF7CDFE424B3D481433A3F10802A1
:104CF000111D8030FCF712F80028E3D06069FBF743
:104D000017FC05460E462069FBF712FC41EC100B20
:104D10003348CDE9005653EC102B75A1B430FFF7A2
:104D2000E3F982B22E49228055465346B4312C48CD
:104D3000FEF720FAB8F1000F0CD0A069FBF7F8FBE2
:104D400041EC100B264853EC102B75A1B430FFF743
:104D5000CBF904E022482EA1B430FFF7C5F982B2A6
:104D60001F4922802B46B4311D48FEF703FAA06884
:104D7000FBF7DEFBCDE90601E068FBF7D9FBCDE9E7
:104D800004012069FBF7D4FB81468A466069FBF782
:104D9000CFFB05460E46A069FBF7CAFB41EC100BA2
:104DA0000398CDE908078DE8600653EC102B61A14C
:104DB0000AA8FFF799F920801D481BAB0AAA1EA973
:104DC0004830FCF7CFFB00287FF417AF2021624862
:104DD000FCF73AFF11E70000303802400044004081
:104DE0002C0100200014014000540040A086010066
:104DF00004000020424D5032383020696E697469D9
:104E0000616C697A6174696F6E206661696C656452
:104E10000D0A0000424D503238300000424D5032F1
:104E200038303A20666F756E642025730D0A0000D5
:104E30002C0000204144432076616C75653A2025A2
:104E4000326420536572766F20616E676C653A201C
:104E5000253364200D0A0000424D453238300000F1
:104E60005369373032313A2048756D696469747915
:104E70002F74656D706572617475726520726561FD
:104E800064696E67206661696C65640D0A000000E4
:104E90005369373032313A2048756D6964697479E5
:104EA0003A20252E32662C2054656D70657261742F
:104EB0007572653A20252E326620430D0A000000E7
:104EC000424D503238303A2054656D7065726174CD
:104ED0007572652F70726573737572652072656186
:104EE00064696E67206661696C65640D0A00000084
:104EF000424D503238303A20507265737375726586
:104F00003A20252E32662050612C2054656D706544
:104F10007261747572653A20252E32662043000056
:104F20002C2048756D69646974793A20252E3266A3
:104F30000D0A000009252E326609252E3266092544
:104F40002E326609252E326609252E326609253352
:104F500064092531640D0A000000024000061016A5
:104F6000000610160000000000000000010203040B
:104F70000607080900000000010203049C4F000816
:104F8000000000202C00000010410008C84F00085D
:104F90002C00002014070000204100080000000041
:104FA0000000000000000000000000000000000001
:104FB00000000000000000000100000010000000E0
:084FC000000000000024F400D1
:04000005080001C529
:00000001FF
